:020000040800F2
:10000000880C00209D010008E50E0008F109000899
:10001000E10E00082B0400089B18000800000000F7
:10002000000000000000000000000000491300086C
:100030002F04000800000000D5110008B5010008D9
:10004000B7010008B7010008B7010008B7010008B0
:10005000B7010008B701000831040008B701000823
:10006000A9040008F904000835050008B7010008D4
:10007000B7010008B7010008B7010008B701000880
:10008000B7010008B7010008B7010008B701000870
:10009000B7010008B7010008B7010008B701000860
:1000A000B7010008B7010008B7010008B701000850
:1000B000B7010008B7010008B7010008B701000840
:1000C000B7010008B7010008B7010008B701000830
:1000D000B70100082516000845160008B7010008FA
:1000E000B7010008B7010008B7010008B701000810
:1000F000B7010008B7010008B7010008B701000800
:10010000B7010008B7010008B7010008B7010008EF
:10011000B7010008B7010008B7010008B7010008DF
:10012000B7010008B7010008B7010008B7010008CF
:10013000B7010008B7010008B7010008B7010008BF
:10014000B7010008B7010008B7010008B7010008AF
:10015000B7010008B7010008B7010008B70100089F
:10016000B7010008B7010008B7010008B70100088F
:10017000B7010008B7010008B7010008B70100087F
:10018000B7010008B7010008DFF80CD000F050F804
:100190000048004701210008880C002006488047DD
:1001A00006480047FEE7FEE7FEE7FEE7FEE7FEE75C
:1001B000FEE7FEE7FEE7FEE7A1140008890100085C
:1001C000D2B201E000F8012B491EFBD27047002299
:1001D000F6E710B513460A4604461946FFF7F0FF46
:1001E000204610BD30B505460020034600E05B1CEC
:1001F000934205D2EC5CC85C201A01D1002CF6D1E8
:1002000030BD30B50B46014600202022012409E014
:1002100021FA02F59D4205D303FA02F5491B04FABF
:1002200002F52844151EA2F10102F1DC30BD0000E8
:10023000064C074D06E0E06840F0010394E8070033
:1002400098471034AC42F6D3FFF7A2FF582F0008AE
:10025000782F000870B58C1810F8015B15F00703B3
:1002600001D110F8013B2A1106D110F8012B03E04F
:1002700010F8016B01F8016B5B1EF9D12B0705D457
:100280000023521E0DD401F8013BFAE710F8013BA0
:10029000CB1A921C03E013F8015B01F8015B521EBC
:1002A000F9D5A142D8D3002070BDCA43026070477F
:1002B00021B1826842F00102826003E0826822F08C
:1002C00001028260704700000021084A1168084A54
:1002D0001140D0E900231A4383681A43C3681A43C4
:1002E0001143044AC2F8041370470000042301407C
:1002F000E030FCFF002001400146C86C80B270472E
:100300000246002013680B400BB1012000E00020E2
:100310007047000030B50246002000235068104CA2
:1003200020400D790C6844EA052420435060906811
:100330000C4C2040D1E903542C438D682C434D795B
:1003400044EA450420439060D06A20F470000C7D9C
:10035000641EE4B2234340EA0350D06230BD000083
:10036000FFFEFFFCFDF7FFC0F0B504460D46002080
:100370000021092D11DDE068A5F10A0606EB46070C
:10038000072606FA07F18843A5F10A0606EB46069A
:1003900003FA06F10843E0600CE0206905EB45072D
:1003A000072606FA07F1884305EB450603FA06F12E
:1003B00008432061072A0FDA606B561E06EB86079A
:1003C0001F2606FA07F18843561E06EB860605FA35
:1003D00006F10843606322E00D2A0FDA206BD61F76
:1003E00006EB86071F2606FA07F18843D61F06EBA1
:1003F000860605FA06F10843206310E0E06AA2F1E0
:100400000D0606EB86071F2606FA07F18843A2F1C0
:100410000D0606EB860605FA06F10843E062F0BD1C
:10042000816841F080418160704700BFFEE77047FE
:1004300010B5012000F0AEF8012827D100BF01213E
:10044000144800F0C4FA0028F9D01348007860B9C5
:1004500001201149087002201049086063201049EA
:10046000086000200F4908700DE00B480078012853
:1004700009D1002008490870094908600949087035
:100480000120064908600A2001F02CFC012000F040
:100490007BF810BD0000024018000020340000204E
:1004A0001C0000202000002010B5042000F072F88D
:1004B000012817D100BF04210C4800F088FA002859
:1004C000F9D002200A4908600A4800680A30094940
:1004D0000860084600685F2801DD0B2008600A20DC
:1004E00001F000FC042000F04FF810BD00100240A5
:1004F000340000201C00002010B5082000F04AF84D
:1005000001280FD100BF0821084800F060FA002838
:10051000F9D00748007810B90120054908700A2071
:1005200001F0E0FB082000F02FF810BD00100240A1
:100530002000002010B5102000F02CF801281AD15E
:1005400000BF10210E4800F042FA0028F9D04FF405
:1005500000710C4800F048FA4FF48061094800F03F
:1005600043FA4FF40051064800F03EFA4FF4804140
:10057000034800F039FA102000F006F810BD000022
:10058000001002400014024001490860704700005A
:10059000143C014001460020034A12680A400AB197
:1005A000012000E000207047143C01400021234955
:1005B0008279002A3AD00A46126803689A430B46A9
:1005C0001A600A1D126803689A430B1D1A600279AB
:1005D00011440A6803681A430A60184A083212680C
:1005E00003689A43154B08331A601A1D1268036892
:1005F0009A43124B0C331A604279102A0ED11A1FFB
:10060000126803681A430D4B08331A601A1D1268EA
:1006100003681A43094B0C331A600DE0074942790D
:1006200011440A6803681A430A6005E0027911441C
:100630000A6803689A430A6070470000003C014062
:1006400010B520A001F0E8F940F6B83001F04AFBFF
:100650001FA001F0E1F940F6B83001F043FB20A003
:1006600001F0DAF940F6B83001F03CFB20A001F0CF
:10067000D3F940F6B83001F035FB27A001F0CCF9F2
:1006800041F6583001F02EFB2C4801F0C5F940F638
:10069000B83001F027FB2A4801F0BEF940F6B83027
:1006A00001F020FB274801F0B7F940F6B83001F01F
:1006B00019FB25A001F0B0F940F6B83001F012FBAB
:1006C00010BD000041542B5253540D0A000000008D
:1006D00041542B524553544F52450D0A000000001F
:1006E00041542B43574D4F44453D310D0A00000006
:1006F00041542B434950534E54504346473D312CAF
:10070000382C226E7470312E616C6979756E2E638F
:100710006F6D220D0A00000041542B43574A41508F
:100720003D2245535038323636222C223132333472
:100730003536373839220D0A00000000E82C000851
:10074000642D0008582E000841542B4D5154545329
:1007500055423D302C222F6B30653571516966480A
:100760006A612F455350383236362F757365722FB4
:10077000676574222C310D0A0000000010B50D22AF
:100780002EA13248FFF72EFD002852D1002448E068
:100790002E4908190E222E490968FFF723FD60B97A
:1007A00000BF2046611CCCB22849085C3A28F8D129
:1007B0000846005D3038274908702449081910227E
:1007C00025490968FFF70EFDB0B900BF2246631C3A
:1007D000DCB21E4B9A5C3A2AF8D11A46125DA2F19D
:1007E0003000621C9A5CA2F1300100EB800201EB48
:1007F00042021A4B1A6000BF144908190B2218490B
:100800000968FFF7EFFC60B900BF2046611CCCB25D
:100810000E49085C3A28F8D10846005D3038114985
:1008200008702046611CCCB20849085C0028AFD192
:1008300000BFC8210548FFF7CAFC10BD2B4D51541D
:1008400054535542524543563A000000BC0700201D
:100850004C00002018000020500000201C00002048
:10086000540000202000002000B589B0C8211548A0
:10087000FFF7ADFC1448007814490968144A12784F
:10088000144B1B68CDE90432CDE90610124801680B
:1008900012480068124A1268124B1B68CDE90032F8
:1008A000CDE9020110480368104802681048016849
:1008B000104801F0B1F840F6B83001F013FA012009
:1008C00009B000BDBC07002020000020540000201B
:1008D000180000204C0000201C00002050000020C8
:1008E00014000020480000201000002044000020D8
:1008F0003C000020CC2D0008F0B50A460021002362
:10090000002400BF3DE0012505FA01F3156805EA62
:1009100003049C4234D105684F000326BE40B54312
:10092000056015794E00B5400668354305601579B8
:10093000012D02D01579022D16D185684F000326AE
:10094000BE40B543856055794E00B5408668354355
:100950008560456801268E40B543456045689679B7
:100960008E40B6B235434560C5684F000326BE4091
:10097000B543C560D5794E00B540C6683543C560FE
:10098000491C1029BFD3F0BDF0B5002300244D074A
:10099000ED0E02FA05F3CE1000F1200555F82650B1
:1009A0004E07F70E0F26BE40B543CF1000F12006CC
:1009B00046F82750CE1000F1200555F8265045EA9C
:1009C0000304CE1000F1200545F82640F0BD024694
:1009D000002013690B400BB1012000E0002070479C
:1009E000418370470183704742694A4042617047C2
:1009F00000BFFEE71CB50121122000F0EDFB012035
:100A00008DF804004020009000208DF806008DF83D
:100A1000070002208DF8050069460748FFF76CFFC4
:100A200000208DF8040069460448FFF765FF402167
:100A30000148FFF7D5FF1CBD000402400010024032
:100A40001CB50121042000F0C7FB00208DF8040034
:100A50004FF48070009000208DF806008DF807009C
:100A600002208DF8050069460148FFF745FF1CBDCF
:100A70000008024010B54FF480710A48FFF7A7FF45
:100A8000012804D10021084601F0F4FA07E04FF4F0
:100A900080710448FFF79BFF08B9002010BD0120BA
:100AA000FCE700000008024070B50024002540214A
:100AB0001848FFF797FF142001F030F9402115483E
:100AC000FFF78EFF09E0641C012001F027F942F2D4
:100AD0001070844201D9012070BD40210E48FFF7FB
:100AE00076FF0028EFD0002409E0641C1B2001F0F1
:100AF00015F942F21070844201D90220ECE740213E
:100B00000548FFF764FF0028EFD164082546284612
:100B1000E2E70000000402400010024070B5024607
:100B20000024002500230020958A138B1B0445EA2E
:100B3000030626F07F4404EA01068E4201D101201B
:100B400000E0002070BD21B1028842F00102028065
:100B500004E002884FF6FE731A40028070470000DE
:100B600000B587B00121480500F046FB01210220B5
:100B700000F032FB4FF44070019002208DF8090024
:100B80008DF8080001208DF80A0000208DF80B0078
:100B900001A91548FFF7B0FE042208211248FFF70B
:100BA000F3FE042209211048FFF7EEFE0020ADF805
:100BB00010004BF6FF70ADF812003020ADF81400B5
:100BC0004FF48060ADF816000001ADF8180007483A
:100BD000039003A9064800F043F801210448FFF7F9
:100BE000B2FF07B000BD000000040240801A0600FA
:100BF0000054004021B1028842F48072028004E077
:100C000002884FF6FF631A400280704721B10288C4
:100C100042F40072028004E002884FF6FF531A404B
:100C2000028070470CB50246002000230193009318
:100C300000920B0F019321F07F41019B1BB1009BA0
:100C40001433009303E0090C009B18330093009BBE
:100C50001B680B400BB1012000E000200CBD000020
:100C60002DE9FF4704460D460026B1460427DFF86C
:100C7000CC80A6884FF6C0700640684600F0DCFACB
:100C8000DDF808802E48B8FBF0F01FFA80F946EA3C
:100C90000906A68020884FF6FE71084020800026B5
:100CA0002849286888420CD828684000B8FBF0F032
:100CB00087B2042F00DA04273E4309F101002084A3
:100CC00027E0E8884BF6FF71884206D1286800EBE0
:100CD0004000B8FBF0F087B209E0286800EBC001E3
:100CE00001EB0010B8FBF0F087B247F48047C7F380
:100CF0000B0008B947F0010747F4004006434FF4E2
:100D0000967009FB00F04FF47A7190FBF1F0401CF3
:100D10002084A683208840F00100208026884FF69A
:100D2000F5300640A8886989084306432680A889CB
:100D3000298908432081BDE8FF87000000127A005E
:100D400040420F00A086010012B141F0010101E014
:100D500001F0FE01018270470182704770B50446C0
:100D60000D4600BF4FF400311C48FFF75BFF012820
:100D7000F8D001211948FFF73DFF00BF1849174877
:100D8000FFF7CCFE0028F9D0002278211348FFF7A6
:100D9000DBFF00BF13491148FFF7C0FE0028F9D060
:100DA00021460E48FFF7D8FF00BF0E49891C0B48AB
:100DB000FFF7B4FE0028F8D029460848FFF7CCFF1B
:100DC00000BF0849891C0548FFF7A8FE0028F8D095
:100DD00001210248FFF71AFF70BD000000540040D7
:100DE00001000300820007001CB50121302000F043
:100DF000F3F94FF4C060009001208DF8040000204A
:100E00008DF8060002208DF8050000208DF80700FF
:100E100069460F48FFF770FD4FF4C04000906946E7
:100E20000C48FFF769FD4FF480410A48FFF7DAFDEF
:100E30004FF400510748FFF7D5FD4FF48061044897
:100E4000FFF7D0FD4FF400710148FFF7CBFD1CBD4B
:100E5000001402400010024000B58DB00121202096
:100E600000F0BAF90121880200F0D6F903208DF8CC
:100E7000300080200B9000208DF8330002208DF888
:100E800031000BA91448FFF737FD002007900890A8
:100E900009900A9007A8FFF717FA002001908DF833
:100EA000080001208DF809000020039004900590AF
:100EB00001208DF8180001A90848FFF72BFA00233C
:100EC000012205210548FFF74FFA01210348FFF7EA
:100ED000EFF90DB000BD00000014024000220140F7
:100EE00000BFFEE77047000070B5002100230F220D
:100EF000C4781CB3174C246804F4E064C4F5E064BF
:100F0000C4F30721C1F10404E3B20A4144789C40D0
:100F1000E1B28478144021430C07210E0E4C057871
:100F20006155047804F01F050124AC4005786D116B
:100F3000AD0005F1E025C5F8004109E0047804F0B2
:100F40001F050124AC40054D0678761145F8264072
:100F500070BD00000CED00E000E400E080E100E086
:100F600002490143024A1160704700000000FA057F
:100F70000CED00E010B5002000F001F810BD70B5D8
:100F80000646002415E004F1B001C8B200F036FDB9
:100F9000002000F033FD102000F030FD002504E0BB
:100FA000304600F032FD681CC5B2802DF8DB601CB5
:100FB000C4B2082CE7DB70BD10B5642000F092FECF
:100FC000AE2000F01BFD202000F018FD102000F0E6
:100FD00015FDB02000F012FDC82000F00FFD00202C
:100FE00000F00CFD102000F009FD402000F006FD8F
:100FF000812000F003FDFF2000F000FDA12000F0A3
:10100000FDFCA62000F0FAFCA82000F0F7FC3F2031
:1010100000F0F4FCA42000F0F1FCD32000F0EEFC82
:10102000002000F0EBFCD52000F0E8FCF02000F000
:10103000E5FCD92000F0E2FC222000F0DFFCDA2001
:1010400000F0DCFC122000F0D9FCDB2000F0D6FC24
:10105000202000F0D3FC8D2000F0D0FC142000F004
:10106000CDFCAF2000F0CAFC10BD70B504460D46A3
:1010700005F1B001C8B200F0C1FC102141EA141022
:1010800000F0BCFC04F00F0141F0010000F0B6FCE0
:1010900070BD00002DE9F04180460E461746002441
:1010A0007D0131464046FFF7E0FF00BF06E00D49F5
:1010B000485D00F0AAFC6D1C601CC4B2102CF6DB6D
:1010C000701CC1B24046FFF7D0FF002406E005497E
:1010D000485D00F09AFC6D1C601CC4B2102CF6DB5D
:1010E000BDE8F081580000202DE9F047064689460A
:1010F00017469A464FF0000800240025BAF1010F68
:1011000003D0BAF1020F5ED125E020E0785D2038EF
:1011100000F0FF087E2E04DD002609F1010000F03A
:10112000FF0949463046FFF7A0FF002409E008EB1D
:101130004801264A02EB4101085D00F066FC601C94
:10114000C4B2062CF3DBB01DC6B2681CC5B2785D14
:101150000028DBD137E032E0785D203800F0FF086E
:10116000782E04DD002609F1010000F0FF09494650
:101170003046FFF77AFF002407E004EB0811144A19
:10118000505C00F042FC601CC4B2082CF5DB09F195
:101190000100C1B23046FFF768FF002408E004EB0D
:1011A000081108310A4A505C00F02FFC601CC4B2E0
:1011B000082CF4DB06F10800C6B2681CC5B2785DE5
:1011C0000028C9D100BF00BFBDE8F0878C2400080B
:1011D000B42600087047000029B1064A126802438D
:1011E000044B1A6004E0034A12688243014B1A6000
:1011F000704700003038024029B1064A12680243A5
:10120000044B1A6004E0034A12688243014B1A60DF
:10121000704700004038024029B1064A1268024374
:10122000044B1A6004E0034A12688243014B1A60BF
:101230007047000044380240F0B50021002200242D
:10124000022500260223324F3F6807F00C0121B12E
:10125000042905D0082937D105E02E4F076036E074
:101260002D4F076033E02A4F3F1F3F68C7F380567A
:10127000274F3F1F3F6807F03F036EB1264FB7FB74
:10128000F3F7DFF88CC0ACF1040CDCF800C0CCF351
:10129000881C07FB0CF40CE01E4FB7FBF3F7DFF8DC
:1012A00070C0ACF1040CDCF800C0CCF3881C07FB68
:1012B0000CF4174F3F1F3F68C7F301477F1C7D00A9
:1012C000B4FBF5F7076002E0124F076000BF00BFF4
:1012D0000F4F3F6807F0F0010909104F7A5C07686B
:1012E000D74047600A4F3F6807F4E051890A0B4F27
:1012F0007A5C4768D7408760054F3F6807F46041D4
:10130000490B064F7A5C4768D740C760F0BD0000C4
:10131000083802400024F40000127A000000002087
:1013200010B500BF02210748FEF7EAFF0028F9D0F8
:1013300002210448FEF7B9FF0248FEF7DDFF04462C
:10134000204610BD002201407047000030B5002249
:101350008B071C0F0F2303FA04F20B4B8C1053F86E
:1013600024309343084C8D1044F8253023468C10CC
:1013700053F824308C07240F00FA04F42343024C62
:101380008D1044F8253030BD083801400CB50020E0
:10139000019000903448006840F480303249086081
:1013A00000BF3148006800F4003000900198401CF4
:1013B0000190009818B90198B0F5A04FF1D12A48D2
:1013C000006800F4003010B10120009001E000201E
:1013D00000900098012846D123484030006840F032
:1013E00080502149403108602048006840F4404066
:1013F0001E4908601C48083000681B490831086015
:101400000846006840F4004008600846006840F460
:10141000A05008601648091F0860081F006840F0C7
:101420008070091F086000BF0F48006800F000705E
:101430000028F9D040F205700E4908600A480830CB
:10144000006820F003000849083108600846006879
:1014500040F00200086000BF03480830006800F058
:101460000C000828F8D10CBD003802400070004084
:1014700008544007003C0240042808D14FF0E02106
:10148000096941F004014FF0E022116107E04FF0DB
:10149000E021096921F004014FF0E0221161704759
:1014A00010B51548006840F47000134908601348EF
:1014B000006840F001001149086000200F49083120
:1014C00008600E4800680E4908400C4908600D4845
:1014D000091D0860081F006820F48020091F0860AB
:1014E000002006490C310860FFF750FF4FF0006004
:1014F00001498039086010BD88ED00E000380240E5
:10150000FFFFF6FE1030002421B1028842F00102F4
:10151000028004E002884FF6FE731A400280704792
:1015200070B5002400220023058C4FF6FE7635406E
:101530000584028C8388048B4FF68F752C40B51E72
:101540002C400D882C43751E2A408D892A434D88D6
:101550002A43104DA84202D00F4DA84213D14FF696
:10156000F7752A40CD892A434FF6FB752A408D88AE
:101570002A434FF6FF652B404FF6FF552B400D8A4F
:101580002B434D8A2B43838004838D6845630284FB
:1015900070BD00000000014000040140416370473D
:1015A00000220288184B98420ED0184B98420BD05C
:1015B000B0F1804F08D0164B984205D0154B984299
:1015C00002D0154B984204D14FF68F731A404B88C6
:1015D0001A43124B984207D0114B984204D04FF651
:1015E000FF431A400B891A4302804B68C3620B8881
:1015F0000385054B984202D0044B984201D18B7A67
:1016000003860123838270470000014000040140EB
:101610000004004000080040000C004000100040A2
:101620000014004010B540F22551054800F072F852
:10163000012804D140F22551014800F043F810BDC3
:101640000010014010B540F225511B4800F062F82F
:1016500001282AD1184800F017F9C1B217480268CA
:101660000068401C154B18601548815418460068E6
:10167000801E1349085C0D2801D1012000E00020E4
:101680000E490968491E0E4A515C0A2901D10121FF
:1016900000E00021084340B1002108480068801E96
:1016A000074A115400200549086040F225510248BC
:1016B00000F008F810BD00000044004024000020A5
:1016C000BC07002010B50022002340F66A14A14296
:1016D00000D100BF0A1201249440A3B2DC4304806D
:1016E00010BD21B1828942F40052828104E08289D6
:1016F0004DF6FF731A408281704702460020B1F513
:10170000007F00D100BF13880B400BB1012000E027
:101710000020704770B502460024002300250020F9
:1017200040F66A16B14200D100BFC1F3421501F084
:101730001F03012606FA03F3012D02D196893340D7
:1017400006E0022D02D1168A334001E0968A33402A
:101750000C12012606FA04F41688344013B10CB1B9
:10176000012000E0002070BDF0B5034600240026F3
:101770000025002040F66A17B94200D100BF184684
:10178000C1F3421401F01F06012707FA06F5012CE8
:1017900001D10C3004E0022C01D1103000E01430F3
:1017A0001AB107682F43076002E00768AF4307607C
:1017B000F0BD00002DE9FF4705460E460024A14676
:1017C00000BFA046B08900B100BF2C8A24F4405469
:1017D000F08804432C82AC8941F20C608443B088C9
:1017E00031890843718908430443AC81AC8A24F4ED
:1017F0004074B0890443AC826846FFF71DFD204861
:10180000854202D01F48854202D1DDF80C9001E0EC
:10181000DDF80890A88900F4004040B109EBC90048
:1018200000EB091031684900B0FBF1F707E009EB64
:10183000C90000EB091031688900B0FBF1F76420A2
:10184000B7FBF0F004012009642101FB1078A8899E
:1018500000F4004040B1322000EBC800B0FBF1F0D2
:1018600000F00700044308E0322000EB0810642178
:10187000B0FBF1F000F00F0004432C81BDE8FF87BE
:10188000001001400014014001468888C0F30800A0
:101890007047C1F308028280704700BFFEE7000076
:1018A00010B588B0044601210846FFF795FC0121D8
:1018B0001020FFF7B1FC02208DF81C004FF4C0602F
:1018C000069000208DF81E008DF81F0002208DF874
:1018D0001D0006A91C48FFF70FF8072209211A4826
:1018E000FFF752F807220A211748FFF74DF8029434
:1018F0000020ADF80C00ADF814000C20ADF812007B
:101900000020ADF80E00ADF8100002A90F48FFF757
:1019100051FF012240F225510C48FFF725FF2520F9
:101920008DF8040002208DF805008DF806000120D6
:101930008DF8070001A8FFF7D7FA01210348FFF748
:10194000D0FE08B010BD00000000024000100140B1
:1019500010B588B0044601210846FFF73DFC01217F
:101960004804FFF749FC02208DF81C000C2006906B
:1019700000208DF81E008DF81F0002208DF81D003C
:1019800006A91C48FEF7B8FF072202211948FEF7F6
:10199000FBFF072203211748FEF7F6FF0294002001
:1019A000ADF80C00ADF814000C20ADF812000020CA
:1019B000ADF80E00ADF8100002A90F48FFF7FAFECF
:1019C000012240F225510C48FFF7CEFE26208DF86B
:1019D000040002208DF805008DF8060001208DF826
:1019E000070001A8FFF780FA01210348FFF779FEFD
:1019F00008B010BD000002400044004010B504468D
:101A000021460020FFF7AAF910BD10B50446214673
:101A10004020FFF7A3F910BD0FB4054B10B503A983
:101A2000044A029800F02CF810BC5DF814FB00008A
:101A3000851F0008B80700200FB4084B10B504A993
:101A400002AA039800F01CF8044602A9002000F046
:101A5000F3F8204610BC5DF814FB0000391C0008A8
:101A600002E008C8121F08C1002AFAD17047704767
:101A7000002001E001C1121F002AFBD170470000C5
:101A80002DE9FF4F8BB09A460F460546002606E02B
:101A900025280BD052460D9990476D1C761C28784E
:101AA0000028F5D10FB03046BDE8F08F0024A046E5
:101AB0000122604900E0044315F8013F203B02FA8F
:101AC00003F00842F7D128782E2817D115F8010F16
:101AD00044F004042A280ED06FF02F022878A0F1D9
:101AE000300109290AD808EB880102EB410100EB1B
:101AF00001086D1CF2E757F8048B6D1C28786928E3
:101B00003ED006DC0028CDD063280BD0642804D159
:101B100036E0732810D075284BD052460D99904767
:101B2000761C85E017F8040B8DF8000000208DF876
:101B30000100E946012003E057F8049B4FF0FF3015
:101B400061074FF0000401D40AE0641C44450DDA3B
:101B50008442FADB19F804100029F6D106E0641C6F
:101B60008442FCDB19F804100029F8D1264404E073
:101B700019F8010B52460D999047641EF8D257E0B0
:101B800001CF4FF00A0B002802DA40422D2102E07B
:101B9000210504D52B218DF82410012103E0E10754
:101BA00005D02021F7E70DF1200908910CE0002174
:101BB000F9E701CF4FF00A0BF9E75946FEF721FB91
:101BC00001F1300209F8012D0028F6D1ADEB090032
:101BD00000F1200B600701D44FF00108D84502DD69
:101BE000A8EB0B0000E000208046002406E009A8D6
:101BF0005246005D0D999047641C761C08988442FB
:101C0000F5DB04E0302052460D999047761CB8F180
:101C10000001A8F10108F5DC05E019F8010B5246B6
:101C20000D999047761CBBF10001ABF1010BF4DC80
:101C30006D1C34E7092801000A68531C0B60107002
:101C40007047000010B504462CB14FF48071054870
:101C5000FEF7C6FE04E04FF480710248FEF7C2FEB4
:101C600010BD0000001402401CB501212020FFF728
:101C7000B3FA4FF48070009001208DF8040000202A
:101C80008DF8060001208DF8050000208DF8070072
:101C900069460448FEF730FE4FF480710148FEF7B4
:101CA0009FFE1CBD0014024010B504466FF00400F6
:101CB000FFF7E2FBE11704EB5171C1F3C701074ADB
:101CC00011701046007800EB4001C1EBC0104FF6D8
:101CD000FF7101EAC0000249088010BD38000020F1
:101CE0003A00002070B504464FF4077094FBF0F002
:101CF000C6B24FF4077094FBF0F100FB114085B2BF
:101D000005E04FF4077000F02FF8701EC6B2002EE9
:101D1000F7D115B1284600F027F870BD0146114AE9
:101D200012784A434FF0E0235A6100229A611A4622
:101D3000126942F001021A6100BF4FF0E0221069FF
:101D400000F001021AB100F48032002AF5D04FF001
:101D5000E022126922F001024FF0E0231A61002212
:101D60009A617047380000200146114A12884A43A0
:101D70004FF0E0235A6100229A611A46126942F03C
:101D800001021A6100BF4FF0E022106900F0010269
:101D90001AB100F48032002AF5D04FF0E022126927
:101DA00022F001024FF0E0231A6100229A6170478D
:101DB0003A0000201CB501214020FFF70DFA012058
:101DC0008DF8040000208DF806004FF4007000909C
:101DD00000208DF8070002208DF8050069460448B0
:101DE000FEF78AFD4FF400710148FEF7FBFD1CBDB4
:101DF000001802402DE9FC47054600240026002774
:101E0000A046A14601208DF8040000208DF80600B0
:101E10004FF40070009000208DF8070002208DF82C
:101E2000050069465648FEF767FD4FF400715448B7
:101E3000FEF7D6FD1420FFF755FF4FF40071504810
:101E4000FEF7D0FD1E20FFF769FF00208DF804008B
:101E50004FF40070009000208DF8070002208DF8EC
:101E6000050069464648FEF747FD00BF0AE0641CCE
:101E70000120FFF753FFB4F57A6F03DD4FF0FF3019
:101E8000BDE8FC874FF400713D48FEF7A0FD002837
:101E9000EDD1002408E0641C0120FFF73FFF642C13
:101EA00002DD6FF00100EBE74FF400713448FEF7FC
:101EB0008EFD0028EFD0002408E0641C0120FFF70D
:101EC0002DFF642C02DD6FF00200D9E74FF40071A2
:101ED0002B48FEF77CFD0028EFD100273DE04FF0B6
:101EE0000008072634E0002408E0641C0120FFF706
:101EF00015FF642C02DD6FF00300C1E74FF40071A1
:101F00001F48FEF764FD0028EFD02820FFF706FFEA
:101F10004FF400711A48FEF75AFDC0B10120B040DD
:101F200040EA080000F0FF08002409E0641C0120DA
:101F3000FFF7F4FEB4F57A7F02DD6FF004009FE74F
:101F40004FF400710E48FEF742FD0028EED1761ED8
:101F5000002EC8DA05F807807F1C052FBFDB287824
:101F600069780844A9780844E978084400F0FF0932
:101F70002879484502D06FF0050081E700207FE70F
:101F80000018024070B504460D46E1B20548FFF75F
:101F900080FC00BF80210348FFF7AFFB0028F9D089
:101FA000002070BD0044004000B585B00121112023
:101FB000FFF712F900208DF810008DF812000120B3
:101FC000039002208DF8110001208DF8130003A961
:101FD0002648FEF791FC1C20039003A92448FEF735
:101FE0008BFC01218803FFF717F902210420FFF77A
:101FF000ADF903210420FFF7A9F904210846FFF7F2
:10200000A5F900210846FFF7A1F91D200190002045
:102010008DF808000C208DF8090001208DF80A00C9
:1020200001A8FEF7C3FA06208DF8000002208DF803
:1020300001008DF8020001208DF803006846FEF7CC
:1020400053FF08208DF800006846FEF74DFF092079
:102050008DF800006846FEF747FF0A208DF8000063
:102060006846FEF741FF05B000BD000000000240D9
:102070000010024070B505460C4635B1012D11D057
:10208000022D1CD0032D34D126E02CB14FF4007169
:102090001948FEF7A7FC04E04FF400711648FEF75C
:1020A0009FFC26E02CB14FF480611348FEF79AFCA8
:1020B00004E04FF480611048FEF792FC19E02CB167
:1020C0004FF400510D48FEF78DFC04E04FF4005131
:1020D0000A48FEF785FC0CE02CB14FF4804107481C
:1020E000FEF780FC04E04FF480410448FEF778FCE2
:1020F00000BF00BF70BD000000140240001002408D
:1021000092B04FF4A060FEF72BFF002010901190CA
:10211000A820FFF7C9FDFEF767FEFFF745FF4FF464
:10212000E130FFF7BDFBFEF765FCFEF789FC00F030
:1021300063F9FEF791FE4FF4E130FFF709FCFFF77A
:1021400039FEFEF70DFDFEF737FFFEF713FF002205
:1021500011461046FEF79EFF012200211020FEF7D7
:1021600099FF022200212020FEF794FF0322002184
:102170003020FEF78FFF042200214020FEF78AFF67
:10218000092202210020FEF785FF0A2202211020E9
:10219000FEF780FF0B2204210020FEF77BFF0C22BC
:1021A00004211020FEF776FF0F2206210020FEF703
:1021B00071FF102206211046FEF76CFF0422062153
:1021C0002020FEF767FF152202214020FEF762FF64
:1021D000162202215020FEF75DFFFEF731FAFFF7CD
:1021E00043FD7548FEF71CF9E4E0FEF75DFC73491A
:1021F000086073480068C0F164017248FFF7CEF9C7
:1022000010A8FFF7F7FD0446FEF734FC0546FFF77C
:1022100087F86D490880C5B9132206213020FEF7E2
:1022200039FF142206214020FEF734FF00206749C1
:1022300008706749086067490870012066490860AE
:1022400001210020FFF716FF09E0112206213020AE
:10225000FEF720FF122206214020FEF71BFF574801
:1022600000680F280DDA172202216020FEF712FF06
:10227000182202217020FEF70DFF0020FFF7E2FC7C
:102280000CE0192202216020FEF704FF1A2202212D
:102290007020FEF7FFFE0120FFF7D4FC54B99DF833
:1022A00042004E4908609DF840004D490860FEF725
:1022B000DBFA02E04B48FFF7AFFB46480078012805
:1022C00002D103204449086043480068012804D033
:1022D00002281CD0032847D12CE0FEF74FFA052234
:1022E00000215020FEF7D6FE062200216020FEF7D6
:1022F000D1FE3648007810B90020314908603348D3
:102300000078012802D10220334908602CE0FEF752
:1023100035FA2F4800680A2803DD2D48006828494F
:1023200008602A48007820B900202549086028491B
:10233000086019E0072200215020FEF7ABFE0822BA
:1023400000216020FEF7A6FE1F480088282190FB90
:10235000F1F01B490860FEF711FA1E48007810B929
:1023600001201D49086000BF00BF9DF842201EA14A
:102370000BA8FFF761FB02230BAA19462120FEF7E9
:10238000B3FE9DF8402018A106A8FFF755FB0223D5
:1023900006AA04212120FEF7A7FE094813A102681E
:1023A00001A8FFF749FB012301AA05214620FEF7FA
:1023B0009BFE00BF19E70000002201403000002012
:1023C00028000020004001402C00002018000020C0
:1023D0001C000020200000203400002010000020FD
:1023E00014000020A42C00083A2564006C6967687A
:1023F000743A25640000000000B58BB00121102064
:10240000FEF7EAFE2020019002208DF8080000204F
:102410008DF80A0002208DF8090000208DF80B00CD
:1024200001A91848FEF768FA032205211548FEF7AE
:10243000ABFA01210804FEF7EFFE6320099044F295
:102440009F10ADF820000020ADF82800ADF8220064
:1024500008A90D48FFF7A4F86020ADF80C00012092
:10246000ADF80E00642005900020ADF8180003A917
:102470000548FFF755F801210348FFF745F80BB071
:1024800000BD0000001002400040014000000000BC
:1024900000000000002F00000000070007000014EB
:1024A0007F147F1400242A7F2A12006264081323F9
:1024B00000364955225000000503000000001C2290
:1024C0004100000041221C000014083E08140008CE
:1024D000083E0808000000A060000008080808087E
:1024E000000060600000002010080402003E514916
:1024F000453E0000427F40000042615149460021B4
:1025000041454B31001814127F10002745454539CD
:10251000003C4A4949300001710905030036494928
:10252000493600064949291E0000363600000000E1
:10253000563600000008142241000014141414142C
:1025400000004122140800020151090600324959D5
:10255000513E007C1211127C007F49494936003EF1
:1025600041414122007F4141221C007F49494941AC
:10257000007F09090901003E4149497A007F0808A6
:10258000087F0000417F4100002040413F01007F63
:1025900008142241007F40404040007F020C027F2F
:1025A000007F0408107F003E4141413E007F090941
:1025B0000906003E4151215E007F09192946004667
:1025C000494949310001017F0101003F4040403F3E
:1025D000001F2040201F003F4038403F0063140888
:1025E0001463000708700807006151494543000063
:1025F0007F41410000552A552A55000041417F0086
:10260000000402010204004040404040000001027A
:102610000400002054545478007F48444438003863
:102620004444442000384444487F003854545418EB
:1026300000087E0901020018A4A4A47C007F0804FD
:1026400004780000447D4000004080847D00007FCD
:10265000102844000000417F4000007C04180478EA
:10266000007C0804047800384444443800FC2424E6
:1026700024180018242418FC007C080404080048CE
:102680005454542000043F444020003C4040207CEF
:10269000001C2040201C003C4030403C00442810DE
:1026A0002844001CA0A0A07C004464544C44141492
:1026B00014141414000000000000000000000000CA
:1026C00000000000000000F80000000000000033DF
:1026D0003000000000100C06100C06000000000086
:1026E0000000000040C07840C0784000043F04046F
:1026F0003F040400007088FC08300000001820FF30
:10270000211E0000F008F000E018000000211C036A
:102710001E211E0000F00888700000001E212324E6
:102720001927211010160E00000000000000000004
:1027300000000000000000E0180402000000000794
:102740001820400000020418E0000000004020189B
:1027500007000000404080F0804040000202010F6E
:1027600001020200000000F0000000000101011F52
:1027700001010100000000000000000080B07000B6
:102780000000000000000000000000000001010146
:1027900001010101000000000000000000303000D5
:1027A00000000000000000008060180400601806AF
:1027B0000100000000E010080810E000000F1020E9
:1027C00020100F00001010F8000000000020203F33
:1027D00020200000007008080888700000302824BD
:1027E000222130000030088888483000001820205E
:1027F00020110E000000C02010F800000007042483
:10280000243F240000F808888808080000192120C7
:1028100020110E0000E0108888180000000F112021
:1028200020110E0000380808C83808000000003FDA
:10283000000000000070880808887000001C222139
:1028400021221C0000E010080810E00000003122E6
:1028500022110F00000000C0C00000000000003086
:1028600030000000000000800000000000008060D8
:102870000000000000008040201008000001020459
:102880000810200040404040404040000404040440
:1028900004040400000810204080000000201008FC
:1028A00004020100007048080808F0000000003031
:1028B00036010000C030C828E810E00007182724BF
:1028C00023140B000000C038E0000000203C23026D
:1028D0000227382008F8888888700000203F2020D0
:1028E00020110E00C0300808080838000718202002
:1028F0002010080008F808080810E000203F2020F9
:1029000020100F0008F88888E8081000203F2020D9
:102910002320180008F88888E8081000203F2000CD
:1029200003000000C0300808083800000718202005
:10293000221E020008F808000008F808203F2101C4
:1029400001213F20000808F8080800000020203F6F
:102950002020000000000808F8080800C0808080DF
:102960007F00000008F888C028180800203F2001D8
:102970002638200008F8080000000000203F202032
:102980002020300008F8F800F8F80800203F003F49
:10299000003F200008F830C00008F808203F200061
:1029A00007183F00E01008080810E0000F10202072
:1029B00020100F0008F808080808F000203F210147
:1029C00001010000E01008080810E0000F1824249E
:1029D00038504F0008F8888888887000203F200011
:1029E000030C3020007088080808380000382021C7
:1029F00021221C00180808F8080818000000203FD1
:102A00002000000008F808000008F808001F202037
:102A100020201F000878880000C838080000073808
:102A20000E010000F80800F80008F800033C070059
:102A3000073C0300081868808068180820302C03C1
:102A4000032C30200838C800C83808000000203F98
:102A50002000000010080808C83808002038262187
:102A600020201800000000FE020202000000007F8B
:102A700040404000000C30C0000000000000000199
:102A80000638C00000020202FE0000000040404084
:102A90007F000000000004020202040000000000A9
:102AA0000000000000000000000000008080808026
:102AB000808080800002020400000000000000000E
:102AC00000000000000080808080000000192422A7
:102AD00022223F2008F8008080000000003F1120E3
:102AE00020110E000000008080800000000E1120E8
:102AF00020201100000000808088F800000E1120C6
:102B000020103F200000808080800000001F2222D3
:102B100022221300008080F0888888180020203F3F
:102B2000202000000000808080808000006B949452
:102B30009493600008F8008080800000203F21000E
:102B400000203F2000809898000000000020203FD7
:102B500020200000000000809898000000C08080C5
:102B6000807F000008F8000080808000203F240261
:102B70002D302000000808F8000000000020203F51
:102B8000202000008080808080808000203F200006
:102B90003F20003F8080008080800000203F210097
:102BA00000203F200000808080800000001F202047
:102BB00020201F00808000808000000080FFA12076
:102BC00020110E000000008080808000000E112087
:102BD00020A0FF80808080008080800020203F2116
:102BE00020000100000080808080800000332424C9
:102BF00024241900008080E0808000000000001F75
:102C0000202000008080000000808000001F202025
:102C100020103F20808080000080808000010E30E6
:102C20000806010080800080008080800F300C0347
:102C30000C300F0000808000808080000020312E4A
:102C40000E312000808080000080808080818E7026
:102C50001806010000808080808080000021302CD8
:102C60002221300000000000807C020200000000F1
:102C7000003F404000000000FF0000000000000096
:102C8000FF0000000002027C800000000040403F86
:102C90000000000000060101020204040000000020
:102CA0000000000041542B4D5154545055423D30CA
:102CB0002C222F6B30653571516966486A612F454A
:102CC0005350383236362F757365722F75706461C4
:102CD0007465222C226468743131206572726F72BF
:102CE000222C312C300D0A0041542B4D5154545597
:102CF0005345524346473D302C312C224E554C4CC7
:102D0000222C2245535038323636266B30653571C9
:102D1000516966486A61222C22633034353730337A
:102D20003135386462663662326632323733316644
:102D300031386365333266633166643562326666A4
:102D4000316539343462626337356636303834621F
:102D5000393735393966323332222C302C302C2237
:102D6000220D0A0041542B4D515454434C49454EB9
:102D70005449443D302C226B3065357151696648A9
:102D80006A612E455350383236367C7365637572EE
:102D9000656D6F64653D325C2C7369676E6D65743B
:102DA000686F643D686D61637368613235365C2CB1
:102DB00074696D657374616D703D313639383632C2
:102DC000383737363937387C220D0A0041542B4DBD
:102DD0005154545055423D302C222573222C227BD5
:102DE0005C226D6574686F645C223A5C2274686969
:102DF0006E672E6576656E742E70726F7065727474
:102E0000792E706F73745C225C2C5C22706172612D
:102E10006D735C223A7B5C2225735C223A25645CEC
:102E20002C5C2225735C223A25645C2C5C22257381
:102E30005C223A25645C2C5C2225735C223A256472
:102E40005C2C5C2225735C223A25647D7D222C302B
:102E50002C300D0A0000000041542B4D51545443B6
:102E60004F4E4E3D302C22696F742D30367A303003
:102E7000657334703074756974682E6D7174742E56
:102E8000696F746875622E616C6979756E63732EF3
:102E9000636F6D222C313838332C310D0A0000005D
:102EA00074656D7065726174757265004C6F7750F2
:102EB0006F7765725377697463680000506F776548
:102EC00072537769746368004E696768744C696708
:102ED0006874537769746368000000002F73797316
:102EE0002F6B30653571516966486A612F455350C3
:102EF000383236362F7468696E672F6576656E7462
:102F00002F70726F70657274792F706F7374000018
:102F10002F7379732F6B30653571516966486A611B
:102F20002F455350383236362F7468696E672F65D7
:102F300076656E742F70726F70657274792F706F12
:102F400073745F7265706C790000000048756D697C
:102F50006469747900000000782F000800000020E8
:102F6000BC07000054020008E4320008BC0700203F
:102F7000CC040000701A0008412D0102030404056E
:102F80002406070809720113DC2E1408102F1B08F1
:102F9000A0081A4C081AAC081AC8041ABC0411403C
:102FA0000D4042445840407F40405048C67B40441A
:102FB0000132FF180D0808E8292E28E80808C80C77
:102FC0000B063126FF0949897F1C0F40800611201E
:102FD0000F1010D0FF9014E4AFA4A4A4AFE4041326
:102FE000040312FF180B894B2A1A0E1A2A4B8880E9
:102FF000202A900120091010FF101011161010083F
:103000002060203F1010100713030C102040F8E33D
:1030100036362A240137FC22222223222A02013CAE
:1030200042827F081B0202AF1AC4AA3A40601B10FA
:10303000F090500E3C131014B840300E0140804008
:103040003F6809F8888C8A898888886D9AFFDF092B
:103050001F40251060028C2BFE920132FE180A04DC
:10306000047E01407E42427E0234427E402AFC9F22
:103070002C252624081204481040308F80844C559B
:10308000252525554C80808040493F7940080B20FC
:103090004448507F40407F504844401931200C74D0
:1030A000545455565454547404042F848341211DA0
:1030B00005010E207D818185E3401308301BFF2030
:1030C0000119051C222C204F2D0201FF80E02D0646
:1030D00018204060180C84844424548F14244484A1
:1030E0008460234139180C3C4040424C40407004FD
:1030F0000931301E0484E43C275C1B24E40C1119C4
:103100003F111BFF0901A449897F74C03FC037806C
:103110004020100C032C030C10601D106002CC1416
:1031200018091E0202023E40404050280C7E0180D9
:1031300080834D5121514987A0091D4011163E221F
:10314000E2223E2BFE220113E20217203F201F1134
:10315000112B7F44012A4750280B04F484D4A5A6E0
:10316000A4D484F4A011200EFE0202123A16131207
:103170001A3242827E29FB49FE3901113A80614BA5
:1031800013605F128019EB32CC1AFCE025E2232297
:1031900020180840201F20504C43AC2A5FB0111C5F
:1031A0000202C2BC2BFE82011A021F5C40407F0457
:1031B0002901113010201808EAACA8A8AFA8A8ACC3
:1031C000EA0828181A3E2F1B02FF8643221E100A07
:1031D00003050911FF118905C312E012F072F80707
:1031E0003D4428FF11AA44700B8301384482929217
:1031F0007401831E7C44C7017D01990562FF9A0119
:1032000002818A010B013669419949FA0101A12A1B
:103210004001212A6D01212A6001791501642ADB10
:10322000010915072ADA01212AD801212AC001093A
:1032300015072A800101352A06010918071CE666D0
:1032400020076A86157A861C2A8601180A808086DD
:1032500086068686C0C00C0E1C0606D030764D2928
:1032600007013113601C12FE1301021009C418205B
:10327000029E63B20E1DFF8181FFF24440300F12A7
:10328000FF180923EAAABFAAEA033F0B012DBC805D
:103290008080080115240E0C082A01013149041D03
:1032A00081808081021901B91706110101090C0EF4
:1032B0000A14C0012178081E21404050215E0801F7
:1032C0002A4DFFFFC1C10409232D481580FCF3EFEF
:1032D000F3FC80FF80EEEEEEF5FBFF9CBEB6B688F9
:0432E0003A000000B0
:040000050800018965
:00000001FF
